:020000040800F2
:1000000000800120F5350008593500085B350008EF
:100010005D3500085F35000861350008000000000C
:100020000000000000000000000000006335000830
:1000300065350008000000006735000869350008D4
:1000400045360008453600084536000845360008A4
:100050004536000845360008453600084536000894
:100060004536000845360008453600084536000884
:100070004536000845360008453600084536000874
:100080004536000845360008453600084536000864
:100090004536000845360008453600084536000854
:1000A0004536000845360008453600084536000844
:1000B0004536000845360008453600084536000834
:1000C0004536000845360008453600084536000824
:1000D0004536000845360008453600084536000814
:1000E0004536000845360008453600084536000804
:1000F00045360008453600084536000845360008F4
:1001000045360008453600084536000845360008E3
:1001100045360008453600084536000845360008D3
:1001200045360008453600084536000845360008C3
:1001300045360008453600084536000845360008B3
:1001400045360008453600084536000845360008A3
:100150004536000845360008453600084536000893
:100160004536000845360008453600084536000883
:1001700045360008453600084536000800000000F6
:08018000453600084536000871
:1001900010B5054C237833B9044B13B10448AFF3C1
:1001A00000800123237010BD7000002000000000BB
:1001B000B83E000808B5034B1BB103490348AFF331
:1001C000008008BD0000000074000020B83E000858
:1001D00053B94AB9002908BF00281CBF4FF0FF31AE
:1001E0004FF0FF3000F072B9ADF1080C6DE904CEAC
:1001F00000F006F8DDF804E0DDE9022304B0704702
:100200002DE9F047089E04468846002B4BD18A42D0
:10021000154667D9B2FA82F24AB1C2F1200701FA53
:1002200002F320FA07F7954047EA030894404FEAA3
:10023000154E230CB8FBFEF71FFA85FC0EFB178842
:1002400043EA084307FB0CF1994209D9EB1807F17F
:10025000FF3080F01B81994240F21881023F2B440D
:100260005B1AA4B2B3FBFEF00EFB103344EA034466
:1002700000FB0CFCA44509D92C1900F1FF3380F0D8
:100280000781A44540F2048102382C4440EA07402B
:10029000A4EB0C0400271EB1D4400023C6E90043A0
:1002A0003946BDE8F0878B4209D9002E00F0EB807B
:1002B0000027C6E9000138463946BDE8F087B3FAA1
:1002C00083F7002F47D18B4202D3824200F2FA809B
:1002D000841A61EB030301209846002EE0D0C6E9A2
:1002E0000048DDE702B9FFDEB2FA82F2002A40F0F0
:1002F0008F80491B4FEA154E1FFA85F80127B1FB85
:10030000FEFC230C0EFB1C1143EA014308FB0CF11D
:10031000994207D9EB180CF1FF3002D2994200F252
:10032000CD808446591AA3B2B1FBFEF00EFB101427
:1003300043EA044408FB00F8A04507D92C1900F152
:10034000FF3302D2A04500F2B6801846A4EB0804A1
:1003500040EA0C409FE7C7F1200CBB4022FA0CFE9C
:100360004EEA030E01FA07F420FA0CF521FA0CF319
:100370004FEA1E482543B3FBF8F92C0C08FB193350
:100380001FFA8EFA44EA034309FB0AF49C4202FA7C
:1003900007F200FA07F10BD91EEB030309F1FF3056
:1003A00080F087809C4240F28480A9F10209734466
:1003B0001B1BADB2B3FBF8F008FB103345EA034456
:1003C00000FB0AFAA24508D91EEB040400F1FF3332
:1003D0006BD2A24569D90238744440EA0940A0FBB7
:1003E0000289A4EB0A044C45C2464B4654D351D073
:1003F000002E69D0B1EB0A0564EB030404FA0CFC8F
:10040000FD40FC404CEA0505C6E90054002747E7DB
:10041000C2F1200320FA03F7954001FA02F021FA15
:1004200003F34FEA154E3843010CB3FBFEF71FFAF6
:1004300085F80EFB173341EA034107FB08F38B42B3
:1004400004FA02F407D9691807F1FF3C2FD28B4256
:100450002DD9023F2944CB1A81B2B3FBFEF00EFB2B
:10046000103341EA034100FB08F38B4207D96918B6
:1004700000F1FF3C17D28B4215D902382944C91A22
:1004800040EA07473BE73746304609E70746E7E6D5
:100490001846FBE64145ABD2B8EB020A69EB0E0207
:1004A00001381346A4E76046E9E7184695E7674632
:1004B000D1E781467CE702382C4447E7ACF1020CD7
:1004C0002B442FE7384608E73746E9E6704700BF78
:1004D00001F0FF01102A2BDB10F0070F08D010F8F5
:1004E000013B013A8B422DD010F0070F42B3F6D1F9
:1004F000F0B441EA012141EA014122F007047FF012
:1005000000070023F0E80256083C85EA010586EA68
:10051000010685FA47F5A3FA87F586FA47F6A5FAA4
:1005200087F68EB9EED1F0BC01F0FF0102F00702B0
:1005300032B110F8013B013A83EA010313B1F8D15B
:100540000020704701387047002D06BF354603383C
:10055000073815F0010F07D1013015F4807F02BF75
:10056000013015F4C03F0130F0BC0138704700BFC6
:10057000104B1B680BB90120704710B504464FF4AF
:100580007A70B0FBF3F30C4A1068B0FBF3F000F0A4
:10059000A9FE68B90F2C01D901200AE000222146EA
:1005A0004FF0FF3000F06AFE024B5C60002000E07C
:1005B000012010BD000000200800002010B5094AED
:1005C000136843F480731360032000F045FE00209D
:1005D000FFF7CEFF10B10124204610BD044602F003
:1005E000D9FEF9E700200240034A1368034909686D
:1005F0000B441360704700BFA000002000000020E3
:10060000014B1868704700BFA000002038B50446B1
:10061000FFF7F6FF0546B4F1FF3F02D0044B1B681D
:100620001C44FFF7EDFF401BA042FAD338BD00BFCA
:100630000000002030B583B000230193002800F0B3
:10064000F5800446436D03B323689A6812F0005F97
:1006500005D09A6822F0204222F03F029A60226878
:10066000936813F0805F1DD1936823F0104323F04B
:100670003F0343F0805393606D4B1B689B096D4AA9
:10068000A2FB03239B09019309E002F09BFE0023D8
:10069000A36584F85030D7E7019B013B0193019B90
:1006A000002BF9D123689A6812F0805F40F08980AE
:1006B000626D42F010026265A26D42F00102A26515
:1006C00001209A6812F0040F7DD00121626D12F0B2
:1006D000100F40F0A480002940F0A180626D22F448
:1006E000817242F0020262659B6813F0010F1BD118
:1006F000514B9B6813F0010F67D001214F4A92685C
:1007000012F0010F63D001230B434D4A926812F09F
:10071000010F5ED00122134306D1636849498A68FC
:1007200022F47C1213438B60627E636B43EA423394
:10073000E2681343A268134394F8202043EA02437B
:10074000012A48D0A26A22B102F47072E16A0A4317
:1007500013432168CD683C4A2A401343CB60236889
:100760009A6812F0040F3BD001219A6812F0080F2A
:1007700038D00122B1B9AAB9217E94F830205200B4
:1007800042EA8131DA6822F4804222F002020A430E
:10079000DA6094F83830012B26D02268136923F0F0
:1007A000010313612369012B30D02268136B23F0FE
:1007B0000F031363636D23F0030343F001036365C9
:1007C00032E000207DE7002180E7002196E700234A
:1007D0009AE700229FE7626A013A43EA4243B1E79F
:1007E0000021C2E70022C5E721680B6923F4FF63FB
:1007F00023F00403E26B256C2A43656C2A43A56C45
:100800002A43134343F001030B61CBE721680B6BD1
:1008100023F00F03E269013A13430B63CAE7636DE8
:1008200043F010036365012003B030BD0120FBE7F6
:1008300008000020632D3E05000004500001045014
:10084000000204500003045007C0F0FF2DE9F041FE
:100850003F4B9F6807F01F074369082B3BD057B1F8
:10086000052F08D0092F06D0394B9B6813F4604F31
:100870002BD1042605E00368DB6813F0010F1DD1BE
:1008800004260D460446FFF7BBFE804623681A681F
:10089000324222D1B5F1FF3FF8D0FFF7B1FEA0EB15
:1008A0000800A84201D8002DF0D1636D43F0040385
:1008B0006365002384F85030032004E0436D43F067
:1008C000200343650120BDE8F081436D43F0200320
:1008D00043650120F7E70826D3E7626D42F4007212
:1008E0006265DA6812F4406F11D1627E7AB91A68D3
:1008F00012F0080F0BD0626D22F480726265626D97
:1009000012F4805F03D1626D42F001026265114A08
:10091000934209D01A46934209D047B1052F06D019
:10092000092F04D0D26803E0A2F58072F3E7DA68F9
:10093000082E06D012F4804F07D10C221A60002036
:10094000C1E708221A600020BDE70020BBE700BF16
:1009500000030450000104500368186C7047000045
:10096000F0B482B00022019290F85020012A00F0E9
:1009700018820346012280F850200268926812F023
:10098000040F0AD0426D42F020024265012000228D
:1009900083F8502002B0F0BC70474A68052A09D895
:1009A000023A032A00F28E80DFE802F00282858894
:1009B0000C224A601E684D680C6830362A0A920084
:1009C00002F00C02B05805F01F051F27AF4020EAC7
:1009D0000700C4F38464AC402043B0501A689068A8
:1009E00010F0040F71D00120946814F0080F6ED03D
:1009F000012450BB4CBB0E688D681432700E800011
:100A000000F004001458C6F304560727B74024EA40
:100A10000704B5402C4314504C691868C268C2F3EF
:100A2000C102520004FA02F20D69042D51D00E6881
:100A3000603050F82570B84C3C4006F0F846324320
:100A4000144344F0004440F825401868826812F0CE
:100A5000010F16D10A68CD68D0F8B040C2F3120673
:100A600024EA060405F01806AC4DF5402A40C2F30E
:100A700012022243C0F8B020C868A94A904200F090
:100A800083800A68A7490A4200F08781A6498968DD
:100A900001F0E074A548824200F01481A44882422B
:100AA00000F05081A348824200F0648100206EE78C
:100AB00012224A607EE718224A607BE74FF4807278
:100AC0004A6077E706224A6074E700208CE700243A
:100AD0008FE7026E046EC4F384640A68C2F31205E1
:100AE0007DBBC2F38462944230D01C68626E606E3B
:100AF000C0F384600A68C2F3120565BBC2F3846266
:100B000090422DD01C68A26EA06EC0F384600A686B
:100B1000C2F312054DBBC2F3846290422AD01C6816
:100B2000E26EE06EC0F384600A68C2F3120535BB62
:100B3000C2F38462904288D1E26E22F00042E26603
:100B400083E792FAA2F2B2FA82F2CCE7026E22F0C6
:100B500000420266C9E792FAA2F2B2FA82F2CFE745
:100B6000626E22F000426266CCE792FAA2F2B2FA1A
:100B700082F2D2E7A26E22F00042A266CFE792FA9A
:100B8000A2F2B2FA82F2D5E71D680A68C2F3120631
:100B900096BB900E013000F01F0009288CBF00208A
:100BA0000120002852D09EBB940E0134A40604F00C
:100BB000F844B6BB900E013000F01F070120B8408A
:100BC0000443C6BB920E013202F01F0202EB420246
:100BD000120522438C681435500E800000F004008A
:100BE0002E58C2F304520727974026EA070604FA54
:100BF00002F232432A5044E792FAA2F0B0FA80F0AF
:100C0000013000F01F0009288CBF00200120C8E738
:100C100092FAA2F4B4FA84F40134A40604F0F8447D
:100C2000C7E792FAA2F0B0FA80F0013000F01F0797
:100C30000120B840C4E792FAA2F2B2FA82F201327D
:100C400002F01F0202EB42021205C2E7CEB9940E77
:100C50000134A40604F0F844E6B9900E013000F027
:100C60001F070120B8400443F6B9900E013000F090
:100C70001F0000EB40021E3A120542F000722243B0
:100C8000A8E792FAA2F4B4FA84F40134A40604F0BA
:100C9000F844E1E792FAA2F0B0FA80F0013000F0F7
:100CA0001F070120B840DEE792FAA2F0B0FA80F008
:100CB000013000F01F0000EB40021E3A120542F026
:100CC0000072DCE711F4000F7FF4E8AE1A681A49ED
:100CD0008A4205D001F500718A4201D0002056E613
:100CE00044F4000410498A6822F0E07214438C60D6
:100CF000124A126892091249A1FB0212920902EBF0
:100D000042029100019102E0019A013A0192019A96
:100D1000002AF9D100203AE600F0FF03FFFF0700A8
:100D200000007F400000088000030450000052C70C
:100D3000000084CB01000080000004500800002067
:100D4000632D3E0511F0807F7FF4ACAE1A68164922
:100D50008A4205D001F500718A4201D0002016E6D2
:100D600044F080721148816821F0E0710A4382608A
:100D700000200CE611F4800F11D119680A4A914243
:100D800001D0002003E644F480020848816821F085
:100D9000E0710A4382600020F9E50020F7E50020B9
:100DA000F5E50220F6E500BF000004500003045002
:100DB00070B5044603689A6812F0040F52D00120FF
:100DC0009A6812F0080F4FD0012208B9002A6BD0A0
:100DD000DA6812F0007F04D0208B40F201129042BA
:100DE0004ED0022910D023689A6812F0040F0BD05D
:100DF0009A6812F0020F07D19A6822F0004222F09E
:100E00003F0242F010029A60012910D023689A68CC
:100E100012F0080F0BD09A6812F0020F07D19A68EF
:100E200022F0004222F03F0242F020029A600229A2
:100E300036D0032932D10C25FFF7E2FB06462368A2
:100E40009B682B422ED0FFF7DBFB801B0528F6D9D1
:100E5000636D43F010036365A36D43F00103A36565
:100E6000012020E00020ABE70022AEE7636D43F0F5
:100E700010036365A36D43F00103A365012012E035
:100E80000022196811F0400F04D108498A42EDD8B8
:100E90000132F6E740221A600121A4E70425CBE7DE
:100EA0000825C9E7002070BD0020FCE7FFFF3FA335
:100EB00038B503689A6812F0010F3DD199681F4A4E
:100EC000114209D0436D43F010034365836D43F035
:100ED00001038365012030E004469A6822F0004255
:100EE00022F03F0242F001029A60FFF789FB0546BB
:100EF00004E0FFF785FB401B022811D823681A681D
:100F000012F0010F16D19A6812F0010FF1D19A6810
:100F100022F0004222F03F0242F001029A60E8E72C
:100F2000636D43F010036365A36D43F00103A36594
:100F3000012002E0002000E0002038BD3F000080DA
:100F400038B53B4B9D6803689B6813F0040F6AD16A
:100F500005F01F0590F85030012B67D0044601239F
:100F600080F85030FFF7A4FF0346002857D1626D88
:100F700022F4706222F0010242F4807262652268FB
:100F80002C498A422FD011468A4200D01DB9616D8A
:100F900021F480116165616D11F4805F26D0A16D2F
:100FA00021F00601A1651C211160002284F8502067
:100FB0002168204A91421CD00A4691421CD0DDB1E2
:100FC000052D19D0092D17D0616D41F4801161658F
:100FD000D26812F0007F27D0626D22F4405242F4B2
:100FE0008052626520E0A1F58071CDE70021A16506
:100FF000D9E7A2F58072E0E7CA6812F0007F05D059
:10100000626D22F4405242F4805262658A6822F096
:10101000004222F03F0242F004028A6004E0002213
:1010200084F8502000E00223184638BD0223FBE775
:10103000000304500001045038B503689A6812F0A8
:10104000020F15D001219A6812F0010F37D0002944
:1010500037D19A6802F00D02012A0BD0436D43F09C
:1010600010034365836D43F001038365012027E08E
:101070000021E8E704469A6822F0004222F03F028D
:1010800042F002029A60036803221A60FFF7B8FA7E
:10109000054623689B6813F0010F0ED0FFF7B0FAE6
:1010A000401B0228F5D9636D43F010036365A36DFF
:1010B00043F00103A365012002E0002000E00020CE
:1010C00038BD0020FCE790F85030012B1DD010B542
:1010D0000446012380F850300321FFF769FE0346E0
:1010E00020B1002284F85020184610BD2046FFF79A
:1010F000A3FF03460028F4D1626D22F4885222F047
:10110000010242F001026265EBE7022318467047D4
:1011100090F85020012A00F0958030B49AB0034630
:10112000012280F850200268474882423FD00020C8
:101130000190019800283ED0806810F0040F43D041
:101140000120926812F0040F6DD100286BD10A685B
:10115000002A41D03D4CA26822F46042486893F8CE
:10116000305040EA45300243A260374A926812F09C
:10117000010F2BD00120364A926812F0010F27D0C0
:10118000012202433348806810F0010F22D0012071
:10119000024353D12D4CA26822F4716222F00F0257
:1011A0000868896801430A43A260002040E000F516
:1011B00080700190BDE75A6D42F020025A6500220E
:1011C00083F85020012036E00020BAE70020D2E763
:1011D0000022D6E70020DBE71C48816821F460414B
:1011E00081601949896811F0010F18D00120184950
:1011F000896811F0010F14D001210143154880685E
:1012000010F0010F00D001220A4319D10F498A685A
:1012100022F4716222F00F028A60002008E010467A
:10122000E5E71146E9E75A6D42F020025A650120D0
:10123000002283F850201AB030BC70470020F7E736
:101240000020F5E70220704700000450000304501E
:101250000001045000020450074AD36823F4E063FD
:101260001B041B0C000200F4E060184340F0BF6058
:1012700040F40030D060704700ED00E030B4174B10
:10128000DB68C3F30223C3F10704042C28BF042442
:101290001D1D062D18D9033B4FF0FF3505FA04F448
:1012A00021EA0401994005FA03F322EA03031943F2
:1012B00000280BDB0901C9B200F1604000F5614074
:1012C00080F8001330BC70470023E5E700F00F0002
:1012D0000901C9B2024B1954F4E700BF00ED00E068
:1012E00014ED00E00138B0F1807F0AD2064B58605F
:1012F000064AF02182F823100020986007221A6025
:1013000070470120704700BF10E000E000ED00E0F2
:1013100070B110B50446037933B102232371002064
:1013200020610123237110BD437102F0B1F8F4E78D
:10133000012070474379012B2AD030B40123437137
:10134000022202710468226801F01005AB401343C9
:10135000236089B90268136803F03C03042B06D0AC
:101360000123037100234371184630BC7047536852
:1013700043F001035360F3E70268136803F470134A
:10138000B3F5802FECD1536843F002035360E7E7D5
:101390000220704710B40468236801F01001012294
:1013A00002FA01F123EA01032360027100205DF8D3
:1013B000044B704710B483B000240194006801907E
:1013C00051B101990A4414320192019A136000202C
:1013D00003B05DF8044B704701990A44083201924A
:1013E000F3E7F8B54379012B00F0948016460D46DB
:1013F000044601234371022303710B68042B32D08E
:101400002B69012B79D02068C36B06F010020721ED
:10141000914023EA01012B68AE683343EE68334301
:1014200093400B43C363206803684FF480419140AD
:1014300023EA010303602068036840F6FC719140D1
:1014400023EA01016B6893400B4303602068036843
:10145000C02101FA02F223EA020202600123237191
:1014600000206071F8BD72B123685B6B002B25DA38
:10147000FFF7C6F80128F7D9236943F00803236171
:1014800003202071EEE7FFF7BBF8074623685B6B8C
:1014900013F4004F0BD0FFF7B3F8C01B0128F5D9A8
:1014A000236943F00803236103202071DAE7012058
:1014B000FFF7ACF82368AA691A6405E00120FFF77A
:1014C000A5F82368AA695A642068826C06F01001A6
:1014D00040F2FF338B4022EA0302EB698B401A4350
:1014E00082642068C36CFF228A4023EA02032A6ACE
:1014F00002FA01F10B43C36482E721688A6B06F0AC
:1015000010001F23834022EA03026B6983401343C8
:101510008B6378E70220A5E7F0B482B0002341E0B6
:10152000D0F82CC02CEA040CC6F3C0049C4044EA5A
:101530000C04C46286E0062400E00024B4403C436E
:101540000235664E46F82540654C2568D44304EACA
:1015500005064F6817F4803F01D042EA0506604D4A
:101560002E606D6804EA05064F6817F4003F01D04D
:1015700042EA05065A4D6E60AD6804EA05064F68FA
:1015800017F4801F01D042EA0506554DAE60ED68A4
:101590002C404E6816F4001F01D042EA0504504A60
:1015A000D46001330A6832FA03F400F09380012416
:1015B0009C402240F5D04D68022D01D0122D10D153
:1015C000DE08083650F826C003F00705AF000F25E7
:1015D000BD402CEA050C0D69BD4045EA0C0540F8FC
:1015E000265006685F000325BD40ED4305EA060C62
:1015F0004E6806F00306BE4046EA0C0606604E68DA
:1016000006F1FF3CBCF1010F03D9112E01D0122EBF
:1016100011D1866805EA060CCE68BE4046EA0C0683
:101620008660466826EA040C4E68C6F300169E40A3
:1016300046EA0C0646604E6806F0030CBCF1030F48
:101640003FF46EAFC46825408C68BC402C43C46036
:101650004C6814F0805FA4D0224C256E45F0010543
:101660002566246E04F001040194019C9D08AE1CC3
:101670001A4C54F8267003F00304A6000F24B4405B
:1016800027EA0407B0F1904F3FF457AF164CA04241
:1016900016D004F58064A04214D004F58064A04202
:1016A00012D004F58064A04210D004F58064A042FA
:1016B0000ED004F58064A0423FF43DAF07243DE71F
:1016C00001243BE7022439E7032437E7042435E704
:1016D000052433E702B0F0BC704700BF00000140B2
:1016E0000004014000100240000400480AB9816271
:1016F0007047816170470000024B186800F4C060B9
:10170000704700BF00700040B0F5007F0FD01F4B46
:101710001B6803F4C063B3F5806F34D01B4A1368B1
:1017200023F4C06343F48063136000207047174BB9
:101730001B6803F4C063B3F5007F22D0134A13681B
:1017400023F4C06343F400731360114B1A6832230F
:1017500003FB02F30F4AA2FB03239B0C013300E0BF
:10176000013B0A4A526912F4806F01D0002BF7D175
:10177000064B5B6913F4806F01D100207047032092
:101780007047002070470020704700BF0070004085
:101790000800002083DE1B4330B583B00546204B94
:1017A0009B6D13F0805F0BD0FFF7A6FFB0F5007FB5
:1017B00017D0802D1FD82DD0702D2DD000211BE0EB
:1017C000174CA36D43F08053A365A36D03F08053C2
:1017D0000193019BFFF790FFA36D23F08053A36556
:1017E000E4E7802D03D9A02D03D9022104E00021D4
:1017F00002E0012100E003210A4A136823F00703F5
:101800000B431360136803F007038B4206D00120DB
:1018100003B030BD0221EFE70121EDE70020F7E73B
:101820000010024000200240284A9368D26802F06B
:10183000030213F00C030AD00C2B06D0042B1FD08C
:10184000082B20D00020024610E0012AF6D11F4AC2
:10185000126812F0080F0CD11C4AD2F89420C2F37F
:1018600003221B4951F8222043B100200C2B0DD03C
:101870007047164A1268C2F30312F2E71046F5E702
:1018800014480022F2E714480022EFE70F4BDB6810
:1018900003F00303022B15D0032B15D00B4BD86894
:1018A000C0F302100130D968C1F3062102FB01F236
:1018B000B2FBF0F2D868C0F3416001304000B2FBE7
:1018C000F0F0D5E7034AE9E7034AE7E700100240F2
:1018D000D03E00080024F40000127A00002800F036
:1018E000D182F0B583B00446AD4B9D6805F00C0580
:1018F000DE6806F00306036813F0100F5ED0E5B152
:101900000C2D18D0A369002B00F0B880A44A1368EE
:1019100043F001031360FEF773FE0746A04B1B68FC
:1019200013F0020F40F09780FEF76AFEC01B0228FA
:10193000F4D90323B9E2012EE4D1994B1B6813F0CB
:10194000020F03D0A369002B00F09F82206A944B02
:101950001B6813F0080F5ED0914B1B6803F0F00377
:1019600098425FD9FFF718FF002840F097828C4B10
:101970001A6842F008021A601A6822F0F002216A1E
:101980000A431A605A6822F47F42E16942EA01225E
:101990005A60FFF749FF824B9B68C3F30313814AE8
:1019A000D35C03F01F03D8407F4B18607F4B18684F
:1019B000FEF7DEFD0346002840F07782236813F02F
:1019C000010F7AD0082D6FD00C2D6BD06368B3F562
:1019D000803F00F09180B3F5A02F00F09380704B12
:1019E0001A6822F480321A601A6822F480221A607F
:1019F0006368002B00F09380FEF702FE0746684BF9
:101A00001B6813F4003F58D1FEF7FAFDC01B642891
:101A1000F5D9032349E2624BD3F894301B0903F054
:101A2000F0039DE75E4B1A6842F008021A601A68DC
:101A300022F0F002216A0A431A605A6822F47F42B7
:101A4000E16942EA01225A60206AFFF7A5FE0028F8
:101A50009FD0012329E2524B1A6842F008021A6013
:101A60001A6822F0F002216A0A431A605A6822F4C6
:101A70007F42E16942EA01225A609FE7484A1368BF
:101A800023F001031360FEF7BBFD0746444B1B68C0
:101A900013F0020F92D0FEF7B3FDC01B0228F5D958
:101AA000032302E2032E91D13D4B1B6813F4003F48
:101AB00003D06368002B00F0F381236813F0020F5A
:101AC0004FD0042D3CD00C2D38D0E368002B78D0BB
:101AD000334A136843F480731360FEF791FD0646A2
:101AE0002F4B1B6813F4806F62D1FEF789FD801BBA
:101AF0000228F5D90323D8E1294A136843F4803337
:101B0000136075E703F18043A3F53C331A6842F490
:101B100080221A601A6842F480321A6068E7FEF781
:101B20006FFD07461E4B1B6813F4003FC5D0FEF740
:101B300067FDC01B6428F5D90323B6E1022EC4D18A
:101B4000174B1B6813F4806F03D0E368002B00F081
:101B5000A981134A536823F0F853216943EA0163CA
:101B60005360236813F0080F56D06369002B3CD0F4
:101B70000B4AD2F8943043F00103C2F89430FEF7D8
:101B80003FFD0646064BD3F8943013F0020F43D1C5
:101B9000FEF736FD801B0228F4D9032385E100BF40
:101BA00000100240003F0008080000200400002050
:101BB000B74A536823F0F853216943EA016353603D
:101BC000CFE7B34A136823F480731360FEF718FD60
:101BD0000646AF4B1B6813F4806FC2D0FEF710FDB2
:101BE000801B0228F5D903235FE1A94AD2F894307B
:101BF00023F00103C2F89430FEF702FD0646A44B21
:101C0000D3F8943013F0020F06D0FEF7F9FC801BD6
:101C10000228F4D9032348E1236813F0040F7AD093
:101C20009B4B9B6D13F0805F0BD1994B9A6D42F0EB
:101C300080529A659B6D03F080530193019B0126AE
:101C400000E00026934B1B6813F4807F26D0A36826
:101C5000012B37D0052B3DD08D4BD3F8902022F0AF
:101C60000102C3F89020D3F8902022F00402C3F8B8
:101C70009020A368002B3BD0FEF7C2FC0746844BA4
:101C8000D3F8903013F0020F44D1FEF7B9FCC01B1B
:101C900041F288339842F2D9032306E17D4A136862
:101CA00043F480731360FEF7ABFC0746794B1B6867
:101CB00013F4807FCBD1FEF7A3FCC01B0228F5D91B
:101CC0000323F2E0724AD2F8903043F00103C2F8E5
:101CD0009030CEE76E4BD3F8902042F00402C3F868
:101CE0009020D3F8902042F00102C3F89020C0E782
:101CF000FEF786FC0746664BD3F8903013F0020FD0
:101D000008D0FEF77DFCC01B41F288339842F2D91F
:101D10000323CAE05EBBA36A002B00F0C5800C2D34
:101D200076D0022B29D05A4B1A6822F080721A60A2
:101D30001B6813F0205F04D1554AD36823F00303D6
:101D4000D360534AD36823F0887323F48033D3607D
:101D5000FEF756FC04464E4B1B6813F0007F55D02F
:101D6000FEF74EFC001B0228F5D903239DE0484AEC
:101D7000936D23F080539365CDE7454A136823F0B4
:101D800080731360FEF73CFC0546414B1B6813F063
:101D9000007F06D0FEF734FC401B0228F5D9032350
:101DA00083E03B4AD3683C491940E36A206B013821
:101DB00043EA0013606B43EA0023E06B40080138FC
:101DC00043EA4053206C4008013843EA4063A06B6B
:101DD000000943EA40430B43D360136843F0807328
:101DE0001360D36843F08073D360FEF709FC0446A8
:101DF000274B1B6813F0007F06D1FEF701FC001B88
:101E00000228F5D9032350E000234EE000234CE0E4
:101E1000012B4DD01E4BDB6803F00301E26A9142B7
:101E200001D0012341E003F07002216B0139B2EBD4
:101E3000011F01D0012338E003F4FE42616BB2EBD5
:101E4000012F01D0012330E003F40031A26B073AE7
:101E500018BF0122914201D0012326E003F4C00102
:101E6000E26B5208013AB1EB425F01D001231CE062
:101E700003F0C063226C5208013AB3EB426F19D0F1
:101E8000012312E001231846704701230DE000BF33
:101E900000100240007000408C809DF9012304E096
:101EA000012302E0012300E00023184603B0F0BD47
:101EB0000123FAE70023F8E7002800F09B8070B5C3
:101EC00004464E4B1B6803F007038B420CD24B4A6F
:101ED000136823F007030B431360136803F0070331
:101EE0008B4201D0012070BD0D46236813F0010F15
:101EF00039D06368032B09D0022B26D063BB404A3C
:101F0000126812F0020F06D10120ECE73C4A126879
:101F100012F0007F70D03A498A6822F0030213431E
:101F20008B60FEF76DFB0646354B9B6803F00C0398
:101F30006268B3EB820F16D0FEF762FB801B41F2A2
:101F400088339842F0D90320CDE72D4A126812F465
:101F5000003FE0D10120C6E7294A126812F4806FE1
:101F6000D9D10120BFE7236813F0020F06D0244A1D
:101F7000936823F0F003A1680B4393601F4B1B6829
:101F800003F00703AB420CD91C4A136823F0070384
:101F90002B431360136803F00703AB4201D0012009
:101FA000A1E7236813F0040F06D0154A936823F4C1
:101FB000E063E1680B439360236813F0080F07D0D8
:101FC0000F4A936823F46053216943EAC103936085
:101FD000FFF72AFC0A4B9B68C3F30313094AD35C3F
:101FE00003F01F03D840084B1860084B1868FEF731
:101FF000BFFA78E701207047012074E70020024013
:1020000000100240003F00080800002004000020EB
:10201000014B1868704700BF0800002008B5FFF7A3
:10202000F7FF054B9B68C3F30223044AD35C03F01C
:102030001F03D84008BD00BF00100240103F000839
:1020400008B5FFF7E5FF054B9B68C3F3C223044ABD
:10205000D35C03F01F03D84008BD00BF001002404E
:10206000103F0008F8B55A4BDB6813F0030F18D087
:10207000574BDB6803F003030268934202D001254B
:102080002846F8BD002A00F0A080514BDB68C3F35E
:10209000021301334268934201D00125F0E7002585
:1020A0001AE00368022B59D0032B5ED0012B01D01C
:1020B00001250FE0464A126812F0020F61D0444D2C
:1020C000EA6822F073024468013C43EA04131343B4
:1020D000EB600025002DD3D10F4604463C4A13681F
:1020E00023F080631360FEF78BFA0646384B1B68BB
:1020F00013F0006F05D0FEF783FA801B0228F5D994
:102100000325002DBCD1002F3DD131490B6923F4AB
:102110001F3323F44073A068E2681209520442EAB4
:10212000002213430B612A4A136843F08063136053
:10213000FEF766FA0646264B1B6813F0006F05D1C2
:10214000FEF75EFA801B0228F5D90325002D97D1F2
:102150001F4A1369A1690B43136191E71C4A126876
:1021600012F4806FABD10125B4E7194A126812F45A
:10217000003FA4D1164A126812F4802F9FD1012586
:10218000A8E70125A6E7012F0FD01148026922F028
:10219000C06222F4FE42A16863695B08013B5B06F2
:1021A00043EA012313430361BDE70948026922F4AE
:1021B000C00222F4FE42A16823695B08013B5B0573
:1021C00043EA012313430361ADE7012558E700BF4C
:1021D00000100240F8B5514BDB6813F0030F18D024
:1021E0004E4BDB6803F003030268934202D00125E3
:1021F0002846F8BD002A00F08E80484BDB68C3F308
:10220000021301334268934201D00125F0E7002513
:102210001AE00368022B59D0032B5ED0012B01D0AA
:1022200001250FE03D4A126812F0020F61D03B4DCC
:10223000EA6822F073024468013C43EA0413134342
:10224000EB600025002DD3D10F460446334A1368B6
:1022500023F080531360FEF7D3F906462F4B1B681B
:1022600013F0005F05D0FEF7CBF9801B0228F5D9EB
:102270000325002DBCD1002F3DD128494B6923F403
:102280001F3323F44073A068E2681209520442EA43
:10229000002213434B61214A136843F080531360BB
:1022A000FEF7AEF906461D4B1B6813F0005F05D123
:1022B000FEF7A6F9801B0228F5D90325002D97D13A
:1022C000164A536961690B43536191E7134A1268D7
:1022D00012F4806FABD10125B4E7104A126812F4F2
:1022E000003FA4D10D4A126812F4802F9FD101251E
:1022F000A8E70125A6E70948426922F0C06222F456
:10230000FE42A16823695B08013B5B0643EA0123A7
:1023100013434361BFE701256AE700BF0010024095
:102320002DE9F04182B00446036813F4006F2FD00A
:10233000436EB3F5800F25D008D9B3F5000F10D048
:10234000B3F5400F40F09980002610E0002B40F0DC
:10235000948000210430FFF785FE06463EB13746E3
:1023600018E05E4AD36843F48033D36000265B4AAA
:10237000D2F8883023F44003616E0B43C2F88830F2
:10238000002707E000212030FFF724FF0646E5E79D
:1023900000273E46236813F4805F15D0A36EB3F187
:1023A000807F7AD06CD9B3F1007F70D0B3F1407FD9
:1023B0007AD1002E7BD1494AD2F8883023F040737D
:1023C000A16E0B43C2F88830236813F4003F00F07D
:1023D0008E80424B9B6D13F0805F6AD13F4B9A6DAC
:1023E00042F080529A659B6D03F080530193019BEC
:1023F0004FF001083A4A136843F480731360FEF704
:10240000FFF80546364B1B6813F4807F05D1FEF7B5
:10241000F7F8401B0228F5D90326002E62D12F4B76
:10242000D3F8903013F4407316D0D4F884209A4235
:1024300012D02A4AD2F8903023F44073D2F8901088
:1024400041F48031C2F89010D2F8901021F480311C
:10245000C2F89010C2F8903013F0010F2CD1002E6A
:1024600040F043811D4AD2F8903023F44073D4F8F1
:1024700084100B43C2F8903035E001273E4689E7CF
:1024800093B90021201DFFF7EDFD064691E7134AA1
:10249000D36843F48033D3608BE7002104F120003C
:1024A000FFF798FE064684E701273E468CE737464D
:1024B0008AE74FF000089DE7FEF7A2F80546074BB4
:1024C000D3F8903013F0020FC9D1FEF799F8401BF2
:1024D00041F288339842F2D90326C0E70010024047
:1024E000007000403746B8F1000F40F000812368CB
:1024F00013F0010F08D09D4AD2F8883023F003036F
:10250000A16B0B43C2F88830236813F0020F08D088
:10251000964AD2F8883023F00C03E16B0B43C2F8E3
:102520008830236813F0040F08D0904AD2F888301E
:1025300023F03003216C0B43C2F88830236813F07A
:10254000080F08D0894AD2F8883023F0C003616CA4
:102550000B43C2F88830236813F0100F08D0834A69
:10256000D2F8883023F44073A16C0B43C2F8883052
:10257000236813F0200F08D07C4AD2F8883023F467
:102580004063E16C0B43C2F88830236813F4007F8A
:1025900008D0764AD2F8883023F44023E16D0B430B
:1025A000C2F88830236813F4806F08D06F4AD2F8DD
:1025B000883023F44013216E0B43C2F8883023681F
:1025C00013F0400F08D0694AD2F8883023F4405302
:1025D000216D0B43C2F88830236813F0800F08D0B8
:1025E000624AD2F8883023F44043616D0B43C2F84D
:1025F0008830236813F4807F08D05C4AD2F8883092
:1026000023F44033A16D0B43C2F88830236813F4E0
:10261000005F0FD0554AD2F8883023F04063E16E56
:102620000B43C2F88830E36EB3F1006F65D0B3F1AD
:10263000806F67D0236813F4002F0FD04B4AD2F875
:10264000883023F04063216F0B43C2F88830236F3A
:10265000B3F1006F5ED0B3F1806F60D0236813F4E4
:10266000802F0FD0414AD2F8883023F04063616F49
:102670000B43C2F88830636FB3F1006F57D0B3F1EA
:10268000806F59D0236813F4804F0FD0374AD2F8A7
:10269000883023F04053A16F0B43C2F88830A36FFA
:1026A000B3F1805F50D0B3F1005F55D0236813F4CD
:1026B000004F08D02D4AD2F8883023F08043E16FD4
:1026C0000B43C2F88830236813F4803F09D0274AAF
:1026D000D2F8883023F00043D4F880100B43C2F8BE
:1026E0008830384602B0BDE8F0813746FBE61F4A25
:1026F000936D23F080539365F9E6D36843F4801318
:10270000D36097E70121201DFFF7ACFC002891D092
:1027100007468FE7D36843F48013D3609EE7012117
:10272000201DFFF79FFC002898D0074696E7D36846
:1027300043F48013D360A5E70121201DFFF792FC2D
:1027400000289FD007469DE70221201DFFF78AFC45
:102750000028ABD00746A9E7022104F12000FFF7CB
:1027600039FD0028A2D00746A0E700BF00100240B4
:102770002DE9F04804460168836802691343426901
:102780001343C26913430868A24A024013430B6013
:102790002268536823F44053E1680B435360A169F6
:1027A00022689D4B9A4201D0236A1943936823F40F
:1027B00030630B4393602368984A934227D0984A2A
:1027C000934238D0974A93424ED0974A934261D071
:1027D000964A934274D0904A934200F08A80102522
:1027E0008D4A934200F0AA80E369B3F5004F00F0F0
:1027F0003581082D00F2BF81DFE815F07F019501DA
:102800009F01BD01AA01BD01BD01BD01B40102F5D9
:102810005842D2F8882002F00302032A09D8DFE8E0
:1028200002F0020481060125DAE70425D8E708252D
:10283000D6E71025D4E702F5E632D2F8882002F078
:102840000C020C2A0ED8DFE802F0070D0D0D090D61
:102850000D0D6F0D0D0D0B000025C1E70425BFE721
:102860000825BDE71025BBE702F5E432D2F8882041
:1028700002F03002102A09D005D9202A56D0302A79
:1028800006D10825ACE71AB90025A9E70425A7E772
:102890001025A5E702F5E232D2F8882002F0C00246
:1028A000402A09D005D9802A42D0C02A06D108255D
:1028B00096E71AB9002593E7042591E710258FE7DD
:1028C00002F5E032D2F8882002F44072B2F5807F3F
:1028D0000BD007D9B2F5007F2CD0B2F5407F06D1DE
:1028E00008257DE71AB900257AE7042578E7102541
:1028F00076E702F5C832D2F8882002F44062B2F5D9
:10290000806F0BD007D9B2F5006F15D0B2F5406FCC
:1029100006D1082564E71AB9002561E704255FE7B9
:1029200010255DE702255BE7022559E7022557E7F9
:10293000022555E7022553E7022551E7082D00F24D
:102940001D81DFE815F00C001B0114001B011100B4
:102950001B011B011B0109004FF4004008E0FFF7B9
:102960005DFB28B90020D9E0FEF75EFFF9E73048AB
:10297000626802EB4203834200F20281B0EB023F45
:1029800000F20081082D66D8DFE805F005652065B6
:10299000306565655800FFF741FB0025070E06020C
:1029A000626850082B4616EB000B47F1000C5846A6
:1029B0006146FDF70DFC03462846A3F540711D4A0C
:1029C000914200F2E1802268D360A7E0560800251A
:1029D0002B46DFF864B04FF0000C1BEB06004CF107
:1029E0000001FDF7F5FB03462846E6E7FEF71CFF6E
:1029F0000025070E0602626850082B4616EB000BF6
:102A000047F1000C58466146FDF7E2FB03462846B5
:102A1000D3E700BFF369FFEF0080004000380140BA
:102A20000044004000480040004C0040005000407E
:102A30000024F400FFFC0F00000024F450080027DD
:102A400000252B4610F5000047F10001FDF7C0FB03
:102A500003462846B1E701200023AEE7082D49D8F8
:102A6000DFE805F0051E2948344848483F00FFF7D5
:102A7000D5FA6268530803EB4003B3FBF2F39BB251
:102A80000020A3F110014FF6EF7291427ED89AB266
:102A900022F00F02C3F3420313432268D3603DE0E8
:102AA000FFF7CEFA6268530803EB4003B3FBF2F37F
:102AB0009BB20020E5E76268530803F1F47303F565
:102AC0009043B3FBF2F39BB20020DAE7FEF7ACFED3
:102AD0006268530803EB4003B3FBF2F39BB20020A0
:102AE000CFE76268530803F58033B3FBF2F39BB280
:102AF0000020C6E701200023C3E7FFF78FFA6368D1
:102B000000EB5302B2FBF3F292B20020A2F11001EB
:102B10004FF6EF7399423BD82368DA6000222266B1
:102B20006266BDE8F088FFF78BFA636800EB53023A
:102B3000B2FBF3F292B20020E8E763685A0802F5AC
:102B4000740202F51052B2FBF3F292B20020DDE7FC
:102B5000FEF76AFE636800EB5302B2FBF3F292B237
:102B60000020D3E763685A0802F50042B2FBF3F293
:102B700092B20020CAE701200022C7E70120CDE77A
:102B80000120CBE70120C9E70120C7E70120C5E705
:102B90000120C3E7436A13F0010F06D002685368AF
:102BA00023F40033816A0B435360436A13F0020F2E
:102BB00006D00268536823F48033C16A0B43536024
:102BC000436A13F0040F06D00268536823F480238D
:102BD000016B0B435360436A13F0080F06D0026881
:102BE000536823F40043416B0B435360436A13F073
:102BF000100F06D00268936823F48053816B0B4357
:102C00009360436A13F0200F06D00268936823F4A0
:102C10000053C16B0B439360436A13F0400F0AD01B
:102C20000268536823F48013016C0B435360036CF8
:102C3000B3F5801F0BD0436A13F0800F06D00268F3
:102C4000536823F40023816C0B4353607047026880
:102C5000536823F4C003416C0B435360EBE72DE949
:102C6000F04105460F4616469846069C2B68DB69E0
:102C700037EA03030CBF01230023B3421CD1B4F194
:102C8000FF3FF3D0FDF7BCFCA0EB0800A04201D849
:102C9000002CEBD12A68136823F4D07313602A68E0
:102CA000936823F00103936020236B67AB670023D5
:102CB00085F87030032000E00020BDE8F0812DE9A8
:102CC000F04182B01E46436F202B55D104460D467D
:102CD0009046002955D0002A55D090F87030012B2D
:102CE00053D0012380F870300023C367212343674A
:102CF000FDF786FC0746A4F85080A4F85280A3682C
:102D0000B3F5805F02D04FF0000813E0236913B1E0
:102D10004FF000080EE0A84600250BE038F8023B13
:102D20002268C3F308031385B4F85230013B9BB209
:102D3000A4F85230B4F852309BB273B100963B46BF
:102D4000002280212046FFF78AFF00BB002DE5D03E
:102D5000236815F8012B1A85E6E700963B4600220A
:102D600040212046FFF77BFF034690B9202262678F
:102D7000002284F8702000E00223184602B0BDE86B
:102D8000F0810123F9E70123F7E70223F5E70323A5
:102D9000F3E70323F1E72DE9F04383B01E46836F89
:102DA000202B7AD104460D469046002979D0002A7E
:102DB00079D090F87030012B77D0012380F87030F3
:102DC0000023C36722238367FDF71AFC0746A4F894
:102DD0005880A4F85A80A368B3F5805F06D0A3B9E1
:102DE000226972B9FF22A4F85C2014E0226922B99A
:102DF00040F2FF12A4F85C200DE0FF22A4F85C2052
:102E000009E07F22A4F85C2005E0B3F1805F0AD0DE
:102E10000022A4F85C20B4F85C80B3F5805F0CD08D
:102E20004FF000091DE022691AB97F22A4F85C2046
:102E3000F1E73F22A4F85C20EDE7236913B14FF0DE
:102E400000090EE0A94600250BE023689B8C08EAE8
:102E5000030329F8023BB4F85A30013B9BB2A4F8B3
:102E60005A30B4F85A309BB28BB100963B460022E0
:102E700020212046FFF7F3FEC8B9002DE5D02368D6
:102E80009A8C5FFA88F3134005F8013BE3E72023AF
:102E9000A367002084F8700000E0022003B0BDE8C2
:102EA000F0830120FAE70120F8E70220F6E703208B
:102EB000F4E730B583B004460023C367FDF7A0FBF9
:102EC000054623681B6813F0080F0CD123681B68A4
:102ED00013F0040F15D120236367A367002084F843
:102EE000700003B030BD6FF07E43009303460022B4
:102EF0004FF400112046FFF7B2FE0028E6D0032071
:102F0000EFE76FF07E4300932B4600224FF48001E1
:102F10002046FFF7A4FE0028DDD00320E1E768B3D8
:102F200010B50446436F03B3242363672268136814
:102F300023F0010313602046FFF71AFC012813D089
:102F4000636ABBB92268536823F4904353602268D4
:102F5000936823F02A0393602268136843F0010307
:102F600013602046FFF7A5FF10BD80F8703000F019
:102F7000BFFAD9E72046FFF70DFEE3E701207047CF
:102F8000002303E0034A0CF8032001330B2BF9DD87
:102F9000704700BF203F000810B58AB00024059498
:102FA0000694079408940994204BDA6C42F00402CA
:102FB000DA64DA6C02F004020192019ADA6C42F0EF
:102FC0008002DA64DA6C02F080020292029ADA6C11
:102FD00042F00102DA64DA6C02F001020392039A11
:102FE000DA6C42F00202DA64DB6C03F00203049351
:102FF000049B224620214FF09040FEF777FB4FF4D0
:10300000005305930A4B0693079405A90948FEF758
:1030100083FA20230593012306930794089405A9B6
:103020004FF09040FEF778FA0AB010BD0010024051
:10303000000021100008004870B58AB000240794F1
:1030400008940994019402940394049405940694BA
:10305000164D174B2B606C60AC60EC602C61042645
:103060006E612C766C760123EB6185F82040AC62B2
:10307000EC6285F830406C6385F838402846FDF7EF
:10308000D9FA079407A92846FEF742F8094B01939D
:103090000623029303947F230493059606940DEB75
:1030A00006012846FDF75CFC0AB070BD1C0100203B
:1030B000000004502000F01470B586B00024009485
:1030C00001940294039404940594144D144B2B60C2
:1030D0006C60AC60EC602C6104266E612C766C76C2
:1030E0000123EB6185F82040AC62EC6285F830404A
:1030F0006C6385F838402846FDF79CFA094B00932D
:103100000623019302947F23039304960594694652
:103110002846FDF725FC06B070BD00BFB8000020B2
:10312000000104500080F03E10B58AB02422002136
:1031300001A800F0B3FA094C094B23602046FEF7C2
:10314000E7F800220192029203920492059201A9EB
:103150002046FEF746F90AB010BD00BFA4000020CB
:103160000074004008B50948094B03604FF4E1338F
:10317000436000238360C36003610C22426183616A
:10318000C36103624362FFF7CAFE08BD80010020ED
:1031900000440040F0B5B9B02422002128A800F076
:1031A0007DFA002422942394249425942694882242
:1031B0002146684600F072FA022527954FF4807385
:1031C0002A9310232B9331953295012733970A23A5
:1031D0003493072635963695379527A8FEF77EFB5C
:1031E0000F232293032323932494259426940421CC
:1031F00022A8FEF761FE44F2020300930F944FF001
:1032000080531E9301950297082303930496059516
:1032100006954FF0807307936846FFF781F84FF4E7
:103220000070FEF771FA39B0F0BD00002DE9F041F1
:1032300086B00CAB0593FDF7C1F9FFF7ABFFFFF7C5
:10324000ABFEFFF7F9FEFFF737FFFFF76DFFFFF764
:1032500089FF00238DF80730012220214FF0904094
:10326000FEF744FA07E04FF0FF3301220DF10701AA
:103270004248FFF790FD9DF80730532BF3D1002211
:1032800020214FF09040FEF731FA00213C48FEF734
:1032900051F840F266342346002211463848FEF7C2
:1032A00089F8384E3046FDF74BFE374D2846FDF77E
:1032B00047FE4FF47A713046FDF7C8FA4FF47A7141
:1032C0002846FDF7C3FA3046FDF746FB86B228468E
:1032D000FDF742FB1FFA80F80DF1080CFFF750FED6
:1032E0002A4F3246394602A800F0E0F9234D4FF448
:1032F0007A73C2B202A92846FFF7E1FC0DF1080C6F
:10330000FFF73EFE4246394602A800F0CFF94FF4DF
:103310007A73C2B202A92846FFF7D1FCB6F5F07F56
:1033200006D840F6FF739C4202D00134A4B2B2E743
:1033300000211348FEF72EF81248FDF7C4FE12488C
:10334000FDF7C1FE00238DF807300DF1080CFFF7E3
:1033500017FE0F4B93E8030002908DF80C104FF40A
:103360007A73042202A90548FFF7A9FC0122202153
:103370004FF09040FEF7BAF97DE700BF80010020D2
:10338000A40000201C010020B8000020183F000805
:103390001C3F000882B00A4B1A6E42F001021A6606
:1033A0001A6E02F001020092009A9A6D42F0805269
:1033B0009A659B6D03F080530193019B02B07047A7
:1033C0000010024000B58BB00023059306930793CD
:1033D000089309930368294A934205D0284A9342E7
:1033E00027D00BB05DF804FB264A13680133136045
:1033F000012B13D0244BDA6C42F00102DA64DB6C4F
:1034000003F001030293029B012305930B23069310
:1034100005A94FF09040FEF77FF8E2E71A4BDA6C0F
:1034200042F40052DA64DB6C03F400530193019B15
:10343000E0E7144A136801331360012B12D0124BDA
:10344000DA6C42F00202DA64DB6C03F002030493EC
:10345000049B012305930B23069305A90B48FEF754
:103460005BF8BEE7084BDA6C42F40052DA64DB6CBE
:1034700003F400530393039BE1E700BF00000450F3
:10348000000104508C00002000100240000400489D
:1034900000B589B000230393049305930693079323
:1034A0000268124B9A4202D009B05DF804FB03F5A2
:1034B000CE339A6D42F000529A659A6D02F0005236
:1034C0000192019ADA6C42F00102DA64DB6C03F0DB
:1034D00001030293029B102303930323049303A984
:1034E0004FF09040FEF718F8DEE700BF0074004090
:1034F00000B589B0002303930493059306930793C3
:103500000268144B9A4202D009B05DF804FB03F53F
:10351000E6339A6D42F400329A659A6D02F40032F5
:103520000192019ADA6C42F00102DA64DB6C03F07A
:1035300001030293029B0C230393022304930323AE
:1035400006930723079303A94FF09040FDF7E4FF8C
:10355000DAE700BF004400407047FEE7FEE7FEE701
:10356000FEE770477047704708B5FDF73DF808BDA6
:1035700008B503460B4A126842B10A4A1068034470
:103580006A46934206D8074A136008BD054A0649B1
:103590001160F2E700F058F80C2303604FF0FF30A1
:1035A000F3E700BF90000020080200200F49D1F887
:1035B000883043F47003C1F888300D4B1A6842F02C
:1035C00001021A60002098601A6822F0A85222F4C2
:1035D00010221A604FF48052DA601A6822F48022B6
:1035E0001A6098614FF000638B60704700ED00E057
:1035F00000100240DFF834D0002103E00C4B5B5890
:10360000435004310B480C4B42189A42F6D30B4AF4
:1036100002E0002342F8043B094B9A42F9D3FFF73A
:10362000C5FF00F017F8FFF701FEFEE7008001205C
:10363000703F000800000020700000207000002093
:1036400004020020FEE70000014B1868704700BF2D
:103650000C00002070B50D4E0D4CA41BA4100025CD
:10366000A54209D10B4E0C4C00F026FCA41BA41063
:103670000025A54205D170BD56F825309847013583
:10368000EEE756F8253098470135F2E7603F00082D
:10369000603F0008603F0008643F000802440346A2
:1036A000934200D1704703F8011BF9E70EB400B54F
:1036B0009CB01DAB029006906FF000410948079145
:1036C0000491094953F8042B05910068019302A95C
:1036D00000F066F8029B00221A701CB05DF804EB43
:1036E00003B070470C0000200802FFFF2DE9F047EF
:1036F0008E689E4282460C469046994637D88A8903
:1037000012F4906F31D0256809696F1A6569022338
:1037100005EB450595FBF3F509F101033B449D429B
:1037200038BF1D46530530D5294600F02BFB064611
:1037300050B90C23CAF80030A38943F04003A38199
:103740004FF0FF30BDE8F0873A46216900F0A8FA53
:10375000A38923F4906343F08003A381266165610C
:103760003E44ED1B2660A5604E464E4500D94E46B0
:1037700032464146206800F09EFAA3689B1BA36076
:1037800023681E4426600020DCE72A4600F054FB34
:1037900006460028E2D12169504600F0A5FAC8E7A4
:1037A0002DE9F04F1D468B891F069DB080460C46C3
:1037B00016460FD50B696BB9402100F0E3FA206083
:1037C000206128B90C23C8F800304FF0FF30C8E062
:1037D000402363610023099320238DF8293030238F
:1037E0008DF82A3003954FF0010B37463D4615F80A
:1037F000013B0BB1252B3ED1B7EB060A0BD053464C
:10380000324621464046FFF771FF013000F0A480A8
:10381000099B534409933B78002B00F09D800023C3
:103820004FF0FF32CDE90523049307938DF8533011
:103830001A932F46052217F8011B5048FCF748FE43
:10384000049BD0B9D90644BF20228DF853201A0713
:1038500044BF2B228DF853202A782A2A15D0079AA4
:103860002F4600200A25394611F8013B303B092B31
:103870004DD9B8B10FE02F46B8E7404A801A0BFA8D
:1038800000F0184304903D46D3E7039A111D1268D7
:103890000391002A01DB079204E0524243F0020345
:1038A000079204933B782E2B0CD17B782A2B33D1B3
:1038B000039B1A1D1B680392002BB8BF4FF0FF3308
:1038C000023705932E4D397803222846FCF700FE77
:1038D00038B14023401B03FA00F0049B0343013737
:1038E0000493397827488DF8281006227E1CFCF7AF
:1038F000EFFD002838D0244B13BB039B073323F084
:10390000070308330393099B4B4409936DE705FBB9
:10391000023201200F46A6E700230137059319461E
:103920000A25384610F8012B303A092A03D9002B12
:10393000C8D00591C6E705FB012101230746F0E742
:1039400003AB00932246114B04A94046AFF300801D
:10395000B0F1FF3F8146D6D1A3895B063FF535AF75
:1039600009981DB0BDE8F08F03AB00932246074BCA
:1039700004A9404600F082F8EAE700BF243F0008AF
:103980002A3F00082E3F000800000000ED36000826
:103990002DE9F04791461F468A680B69DDF82080C3
:1039A0009342B8BF1346C9F8003091F84320064649
:1039B0000C4612B10133C9F800302368990642BFA2
:1039C000D9F800300233C9F80030256815F0060533
:1039D00007D104F1190AE368D9F800209B1AAB4219
:1039E00028DC94F843302268003318BF0123920684
:1039F0002DD404F1430239463046C047013020D06F
:103A00002368E568D9F8002003F00603042B08BFFB
:103A1000AD1AA36822690CBF25EAE575002593421B
:103A2000C4BF9B1AED184FF000091A344D451AD146
:103A3000002008E00123524639463046C047013095
:103A400003D14FF0FF30BDE8F0870135C3E7E1183F
:103A50005A1C302081F84300224494F8451082F823
:103A600043100233C5E70123224639463046C0479A
:103A70000130E6D009F10109D8E700002DE9F04353
:103A800001F1430C0C46097E85B06E2917460646A7
:103A900098460C9A00F0B38022D8632936D00AD811
:103AA000002900F0B980582900F0838004F1420514
:103AB00084F8421032E0642901D06929F6D12068E7
:103AC0001368050603F104012AD51B681160002B59
:103AD00003DA2D225B4284F843206F480A2239E042
:103AE000732900F09D8008D86F2920D07029DDD17E
:103AF000236843F02003236003E0752917D0782959
:103B0000D4D1782384F84530644855E01368191DF2
:103B10001B68116004F1420584F8423001238CE0F7
:103B20001B68116010F0400F18BF1BB2CFE713687D
:103B30002568181D1060280601D51B6802E068067C
:103B4000FBD51B8854486F2914BF0A220822002184
:103B500084F843106568A560002DC0F29580216847
:103B600021F004012160002B3DD1002D40F08E801A
:103B70006546082A0BD12368DB0708D523696268EC
:103B80009A42DEBF302305F8013C05F1FF35ACEB6E
:103B900005032361CDF800803B4603AA2146304649
:103BA000FFF7F6FE01304DD14FF0FF3005B0BDE814
:103BB000F083394884F84510136821681D1D1B687F
:103BC00015600A060BD5CA0744BF41F020012160E9
:103BD0001BB9226822F0200222601022B7E74D06AE
:103BE00048BF9BB2EFE76546B3FBF2F102FB11332E
:103BF000C35C05F8013D0B460029F5D1B9E7136810
:103C000025686169181D106028061B6801D51960B8
:103C100002E06A06FBD51980002323616546B9E7F7
:103C20001368191D11601D68626800212846FCF7A1
:103C30004FFC08B1401B606063682361002384F877
:103C40004330A7E723692A4639463046C04701304A
:103C5000AAD023689B0713D4E068039B9842B8BF9F
:103C60001846A3E701234A4639463046C04701308B
:103C70009AD00135E368039A9B1AAB42F2DCEBE77A
:103C8000002504F11909F5E7002BACD1037884F87D
:103C9000423004F142056CE7353F0008463F00081A
:103CA00010B5431E0A44914200D110BD11F8014BDA
:103CB00003F8014FF7E7884210B501EB020307D87C
:103CC000421E99420AD011F8014B02F8014FF8E761
:103CD0008342F5D98118D21AD34200D110BD13F80E
:103CE000014D01F8014DF7E738B50546002945D0EB
:103CF00051F8043C0C1F002BB8BFE41800F0D2F8B8
:103D00001F4A1368104633B9636014602846BDE843
:103D1000384000F0C8B8A3420CD921686218934219
:103D200004BF1A685B68636004BF521822600460B5
:103D3000ECE713465A680AB1A242FAD91968581832
:103D4000A0420BD120680144581882421960DDD18D
:103D5000106852685A6001441960D7E702D90C23F1
:103D60002B60D3E7206821188A4204BF116852688B
:103D7000626004BF091821605C60C7E738BD00BFFE
:103D80009800002070B5CD1C25F0030508350C2DDA
:103D900038BF0C25002D064601DBA94203D90C23B0
:103DA0003360002070BD00F07DF8214A1468214680
:103DB00091B9204C23681BB9304600F063F82060AD
:103DC0002946304600F05EF8431C24D10C233360B2
:103DD000304600F068F8E4E70B685B1B18D40B2B47
:103DE0000FD90B60CD50CC18304600F05CF804F1D0
:103DF0000B00231D20F00700C31AD3D05A42E25013
:103E0000D0E78C424B6816BF636013600C46EBE74B
:103E10000C464968CCE7C41C24F00304A04205D03A
:103E2000211A304600F02EF80130CFD02560DBE7B4
:103E3000980000209C000020F8B5074614460E4666
:103E400021B91146BDE8F840FFF79CBF22B9FFF742
:103E50004BFF25462846F8BD00F026F8A0420FD2B9
:103E600021463846FFF78EFF05460028F2D031463E
:103E70002246FFF715FF31463846FFF735FFE9E7E1
:103E80003546E7E738B5064C00230546084623606B
:103E9000FFF76EFB431C02D1236803B12B6038BDD2
:103EA000000200207047704751F8043C181F002B97
:103EB000BCBF0B58C0187047F8B500BFF8BC08BCB1
:103EC0009E467047F8B500BFF8BC08BC9E467047D8
:103ED000A0860100400D0300801A060000350C008A
:103EE00040420F0080841E0000093D0000127A004D
:103EF0000024F40000366E010048E801006CDC028A
:103F00000000000000000000010203040607080989
:103F1000000000000102030425750A0073746F702D
:103F200000000000232D302B2000686C4C006566DB
:103F300067454647003031323334353637383941FA
:103F40004243444546003031323334353637383910
:083F5000616263646566000014
:083F5800A8C2FF7F0100000078
:083F6000B5010008000000009B
:083F68009101000800000000B7
:103F7000010000001000000000093D0010000020BA
:103F80000000000000000000000000000000000031
:103F90000000000000000000000000000000000021
:103FA0000000000000000000000000000000000011
:103FB0000000000000000000000000000000000001
:103FC00000000000000000000000000000000000F1
:103FD00000000000000000000000000000000000E1
:04000005080035F5C5
:00000001FF
